{
  "_format": "hh-sol-artifact-1",
  "contractName": "CancunOpcodes",
  "sourceName": "solidity/CancunOpcodes.sol",
  "abi": [
    {
      "inputs": [],
      "name": "testBlobBaseFee",
      "outputs": [
        {
          "internalType": "uint256",
          "name": "fee",
          "type": "uint256"
        }
      ],
      "stateMutability": "view",
      "type": "function"
    },
    {
      "inputs": [
        {
          "internalType": "uint256",
          "name": "index",
          "type": "uint256"
        }
      ],
      "name": "testBlobHash",
      "outputs": [
        {
          "internalType": "bytes32",
          "name": "hash",
          "type": "bytes32"
        }
      ],
      "stateMutability": "view",
      "type": "function"
    },
    {
      "inputs": [
        {
          "internalType": "uint8",
          "name": "value",
          "type": "uint8"
        }
      ],
      "name": "testSimpleMCopy",
      "outputs": [
        {
          "internalType": "bytes32",
          "name": "copied",
          "type": "bytes32"
        }
      ],
      "stateMutability": "pure",
      "type": "function"
    },
    {
      "inputs": [
        {
          "internalType": "uint256",
          "name": "value",
          "type": "uint256"
        }
      ],
      "name": "testTstoreTload",
      "outputs": [
        {
          "internalType": "uint256",
          "name": "loadedValue",
          "type": "uint256"
        }
      ],
      "stateMutability": "nonpayable",
      "type": "function"
    }
  ],
  "bytecode": "0x6080604052348015600e575f80fd5b506102918061001c5f395ff3fe608060405234801561000f575f80fd5b506004361061004a575f3560e01c806307f641e71461004e578063109a972b1461007e5780636a037df3146100ae578063f48357f1146100de575b5f80fd5b61006860048036038101906100639190610176565b6100fc565b60405161007591906101b9565b60405180910390f35b61009860048036038101906100939190610208565b610106565b6040516100a591906101b9565b60405180910390f35b6100c860048036038101906100c39190610176565b610129565b6040516100d59190610242565b60405180910390f35b6100e6610138565b6040516100f39190610242565b60405180910390f35b5f81499050919050565b5f60405182815360408101604052602081602083015e6020810151915050919050565b5f8160425d60425c9050919050565b5f4a905090565b5f80fd5b5f819050919050565b61015581610143565b811461015f575f80fd5b50565b5f813590506101708161014c565b92915050565b5f6020828403121561018b5761018a61013f565b5b5f61019884828501610162565b91505092915050565b5f819050919050565b6101b3816101a1565b82525050565b5f6020820190506101cc5f8301846101aa565b92915050565b5f60ff82169050919050565b6101e7816101d2565b81146101f1575f80fd5b50565b5f81359050610202816101de565b92915050565b5f6020828403121561021d5761021c61013f565b5b5f61022a848285016101f4565b91505092915050565b61023c81610143565b82525050565b5f6020820190506102555f830184610233565b9291505056fea2646970667358221220557c6520cf75983003b61b499d2c575700eeca53ee5de7ae1760ea2a9795b39964736f6c63430008190033",
  "linkReferences": {},
  "deployedLinkReferences": {}
}